:1001080063E800020000000000000000000000009A
:1001180000000000000000000000000000000000D7
:1001280000000000000000000000000000000000C7
:1001380000000000000000000000000000000000B7
:1001480000000000000000000000000000000000A7
:1004E80000000000000000000000000042000007BB
:0104F800D033
:10201D007E007F02900000EEF0A3EFF0900000E054
:10202D00FEA3E0FF8F828E837403F0A374E2F09021
:10203D000000E0FEA3E0FF8F828E83A3A37401F066
:10204D007B007A0779D0900000E0FEA3E0FF8F823D
:0E205D008E83A3A3A3EBF0A3EAF0A3E9F02285
:08135400900472EEF0A3EFF02B
:10135C00900000E0FEA3E0FFEFB4D007EEB407036B
:10136C0012201D900000E0FEA3E0FFAA06A9077B57
:10137C0001900474EBF0A3EAF0A3E9F0900474E09C
:10138C00FBA3E0FAA3E0F91206ADFFAEF0900472F5
:10139C00E0FCA3E0FDC3EF9DEE9C401B900474E0C9
:1013AC00FBA3E0FAA3E0F9758202758300120636FE
:1013BC00FF7E00EF4E705F900474E0FBA3E0FAA395
:1013CC00E0F97582037583001207BDC003C002C02B
:1013DC00017B007A0779D0D082D083D0E06B700883
:1013EC00E965827003EA65836022900474E0FBA3D4
:1013FC00E0FAA3E0F97582037583001207BD90042F
:10140C0074EBF0A3EAF0A3E9F00213887B007A07EF
:10141C0079D022021388900474E0FBA3E0FAA3E0D5
:10142C00F91206ADFFAEF0900472E0FCA3E0FDED06
:10143C002406FDEC3400FCC3EF9DEE9C503C900464
:10144C0074E0FBA3E0FAA3E0F9758202758300E473
:10145C00120675900474E0FBA3E475F0061206976F
:10146C00A9F0FA900477EBF0A3EAF0A3E9F090046A
:10147C0077E0FBA3E0FAA3E0F922900474E0FBA36D
:10148C00E0FAA3E0F91206ADFFAEF0900472E0FCB6
:10149C00A3E0FDED2406FDEC3400FCC3EF9DEE9CB7
:1014AC00403D900474E0FBA3E0FAA3E0F9900472D1
:1014BC00E0FCA3E0FD121A77900474E0FBA3E47542
:1014CC00F006120697A9F0FA900477EBF0A3EAF075
:1014DC00A3E9F0900477E0FBA3E0FAA3E0F9227B08
:0514EC00007A0779D031
:0114F10022D8
:101A770090047AEBF0A3EAF0A3E9F090047DECF090
:031A8700A3EDF0DC
:101A8A0090047AE0FBA3E0FAA3E0F9AE02AF01907A
:101A9A00047DE0FCA3E0FDEF2DFFEE3CFEEF240603
:101AAA00FFEE3400FEAA06A9077B0190047FEBF043
:101ABA00A3EAF0A3E9F090047AE0FBA3E0FAA3E03A
:101ACA00F91206ADFFAEF090047DE0FCA3E0FDC381
:101ADA00EF9DFFEE9CFEEF24FAFFEE34FFFE90042A
:101AEA007FE0FBA3E0FAA3E0F9EE8FF01207109073
:101AFA00047FE0FBA3E0FAA3E0F975820275830094
:101B0A00740112067590047AE0FBA3E0FAA3E0F9E7
:101B1A007582037583001207BDC003C002C001901D
:101B2A00047FE0FBA3E0FAA3E0F975820375830062
:101B3A001207ED90047DE0FEA3E0FF90047AE0FB3B
:101B4A00A3E0FAA3E0F9EE8FF012071090047AE00E
:101B5A00FBA3E0FAA3E0F9758202758300E412069A
:101B6A007590047FE0FBA3E0FAA3E0F9C003C0028A
:101B7A00C00190047AE0FBA3E0FAA3E0F9758203BE
:061B8A007583001207ED57
:011B90002232
:0B14F20090044EEBF0A3EAF0A3E9F039
:1014FD0090044EE0FBA3E0FAA3E0F9C003C002C0E4
:10150D00017B017A007902C3D082D083D0E0E995C6
:10151D0082EA958340030216857B017A007902AE3B
:10152D0002AF01EF24E8FFEE3403FEAA06A9077B04
:10153D0000C003C002C00190044EE0FBA3E0FAA37B
:10154D00E0F9D3D082D083D0E0E99582EA9583404B
:04155D0003021685EA
:1015610090044EE0FBA3E0FAA3E0F9900454EBF001
:10157100A3EAF0A3E9F090045574FF75F0FA12069E
:1015810097900000E0FEA3E0FFAA06A9077B019067
:101591000451EBF0A3EAF0A3E9F07B007A0779D0DC
:1015A100C003C002C001900451E0FBA3E0FAA3E034
:1015B100F9D082D083D0E06B7008E965827003EACC
:1015C10065837003021685900454E0FBA3E0FAA33F
:1015D100E0F9C003C002C001900451E0FBA3E0FAAE
:1015E100A3E0F9D082D083D0E06B7008E965827006
:1015F10003EA65837035900451E0FBA3E0FAA3E0B0
:10160100F9758202758300120636FF7E00EF4E7077
:101611001A900454E0FBA3E0FAA3E0F97582027585
:101621008300740112067512168622900451E0FBA4
:10163100A3E0FAA3E0F97582037583001207BDC028
:1016410003C002C0017B007A0779D0D082D083D059
:10165100E06B7008E965827003EA65836026900497
:1016610051E0FBA3E0FAA3E0F97582037583001250
:1016710007BD900451EBF0A3EAF0A3E9F002159B3A
:041681002202159B91
:011685002242
:10168600900000E0FEA3E0FFAA06A9077B019004F4
:101696009AEBF0A3EAF0A3E9F090049AE0FBA3E04A
:1016A600FAA3E0F97582037583001207BDC003C073
:1016B60002C0017B007A0779D0D082D083D0E06B5C
:1016C6007008E965827003EA658370030217EE907D
:1016D600049AE0FBA3E0FAA3E0F9758202758300A1
:1016E600120636FFEF700302179590049AE0FBA3EB
:1016F600E0FAA3E0F97582037583001207BD7582CF
:1017060002758300120636FFEF70030217959004E8
:101716009AE0FBA3E0FAA3E0F97582037583001251
:1017260007BD1206ADFFAEF090049AE0FBA3E0FA07
:10173600A3E0F91206ADFDACF0ED2FFFEC3EFEEF97
:101746002406FFEE3400FE90049AE0FBA3E0FAA321
:10175600E0F9EE8FF012071090049AE0FBA3E0FA8E
:10176600A3E0F97582037583001207BD75820375C0
:1017760083001207BDC003C002C00190049AE0FBBB
:10178600A3E0FAA3E0F97582037583001207ED90D2
:10179600049AE0FBA3E0FAA3E0F9758203758300DF
:1017A6001207BDC003C002C0017B007A0779D0D002
:1017B60082D083D0E06B7008E965827003EA6583A6
:1017C600602690049AE0FBA3E0FAA3E0F975820391
:1017D6007583001207BD90049AEBF0A3EAF0A3E923
:0817E600F002169F2202169F7B
:0117EE0022D8
:101D8C0090049DEBF0A3EAF0A3E9F090049DE0FB36
:101D9C00A3E0FAA3E0F912074EC003C002C0017B16
:101DAC00007A0779D0D082D083D0E06B7008E965D7
:101DBC00827003EA65836003021E667F067E001252
:101DCC001354C003C002C00190049DE0FBA3E0FAD1
:101DDC00A3E0F912076E90049DE0FBA3E0FAA3E0E8
:101DEC00F912074EC003C002C0017B007A0779D0FC
:101DFC00D082D083D0E06B7008E965827003EA650D
:101E0C008370037F00227B007A0779D0C003C00265
:101E1C00C00190049DE0FBA3E0FAA3E0F912074E89
:101E2C007582037583001207ED90049DE0FBA3E01F
:101E3C00FAA3E0F912074EE475F0001207109004B3
:101E4C009DE0FBA3E0FAA3E0F912074E7582027540
:0D1E5C00830074011206757F01227F0022B1
:0B1B9100900457EBF0A3EAF0A3E9F08A
:101B9C00900457E0FBA3E0FAA3E0F912074EC00350
:101BAC00C002C0017B007A0779D0D082D083D0E00C
:101BBC006B7008E965827003EA65837003021C94FC
:101BCC00900457E0FBA3E0FAA3E0F912074E7582EC
:101BDC0002758300120636FF7E00EF64014E60032F
:101BEC00021C94900457E0FBA3E0FAA3E0F912075F
:101BFC004E7582037583001207BD90045AEBF0A357
:101C0C00EAF0A3E9F0900457E0FBA3E0FAA3E0F9B3
:101C1C0012074E1214F27B007A0779D0C003C0026F
:101C2C00C001900457E0FBA3E0FAA3E0F912076EA1
:101C3C0090045AE0FBA3E0FAA3E0F9EA494B6045B3
:101C4C0090045AE0FBA3E0FAA3E0F97582207583B7
:101C5C00001207BD90045DEBF0A3EAF0A3E9F0904D
:101C6C00045AE0FBA3E0FAA3E0F91214F290045D2D
:101C7C00E0FBA3E0FAA3E0F990045AEBF0A3EAF03E
:0A1C8C00A3E9F080AB7F01227F0086
:011C9600222B
:0B194300900460EBF0A3EAF0A3E9F0D1
:10194E007B007A0779D0C003C002C001900460E02A
:10195E00FBA3E0FAA3E0F9D082D083D0E06B70084D
:10196E00E965827003EA65837003021A749004605D
:10197E00E0FBA3E0FAA3E0F975820275830012067C
:10198E0036FF7E00EF64014E6003021A749004600D
:10199E00E0FBA3E0FAA3E0F975820375830012075A
:1019AE00BD900463EBF0A3EAF0A3E9F07B007A07A5
:1019BE0079D0C003C002C001900463E0FBA3E0FA3B
:1019CE00A3E0F9D082D083D0E06B7008E965827015
:1019DE0003EA65836045900463E0FBA3E0FAA3E0AD
:1019EE00F97582207583001207BD900466EBF0A393
:1019FE00EAF0A3E9F0900463E0FBA3E0FAA3E0F9B8
:101A0E001214F2900466E0FBA3E0FAA3E0F990044E
:101A1E0063EBF0A3EAF0A3E9F08091900460E0FBA1
:101A2E00A3E0FAA3E0F97582027583007401120631
:101A3E00757B007A0779D0C003C002C001900460A4
:101A4E00E0FBA3E0FAA3E0F97582037583001207A9
:101A5E00ED900460E0FBA3E0FAA3E0F9E475F0007A
:081A6E001207107F01227F0026
:011A7600224D
:0B0C3000900469EBF0A3EAF0A3E9F0E8
:100C3B007B007A0779D0C003C002C001900469E041
:100C4B00FBA3E0FAA3E0F9D082D083D0E06B70086D
:100C5B00E965827003EA65837003020EC69004692E
:100C6B00E0FBA3E0FAA3E0F975820275830012069C
:100C7B0036FFEF7003020EC6900469E0FBA3E0FAA7
:100C8B00A3E0F97582037583001207BD90046FEB27
:100C9B00F0A3EAF0A3E9F0900469E0FBA3E0FAA368
:100CAB00E0F97582037583001207BDC003C002C053
:100CBB00017B007A0779D0D082D083D0E06B7008AB
:100CCB00E965827003EA65836003020DA57F237ECD
:100CDB0000121354C003C002C001900469E0FBA3CF
:100CEB00E0FAA3E0F97582037583001207ED900417
:100CFB0069E0FBA3E0FAA3E0F975820375830012A8
:100D0B0007BDC003C002C0017B007A0779D0D08237
:100D1B00D083D0E06B7008E965827003EA6583705D
:100D2B00037F002290046CE0FBA3E0FAA3E0F9C080
:100D3B0003C002C001900469E0FBA3E0FAA3E0F951
:100D4B007582037583001207BDA801AC02AD03D0F9
:100D5B0001D002D0037E007F201205F77B007A07BB
:100D6B0079D0C003C002C001900469E0FBA3E0FA94
:100D7B00A3E0F97582037583001207BD7582207598
:100D8B0083001207ED900469E0FBA3E0FAA3E0F9FE
:100D9B00E475F0011207107F012290046FE0FBA3B2
:100DAB00E0FAA3E0F97582207583001207BDC0033A
:100DBB00C002C0017B007A0779D0D082D083D0E00B
:100DCB006B7008E965827003EA6583602190046F9C
:100DDB00E0FBA3E0FAA3E0F975822075830012070C
:100DEB00BD90046FEBF0A3EAF0A3E9F080AC7F2396
:100DFB007E00121354C003C002C00190046FE0FBCD
:100E0B00A3E0FAA3E0F97582207583001207ED9039
:100E1B00046FE0FBA3E0FAA3E0F975822075830071
:100E2B001207BDC003C002C0017B007A0779D0D086
:100E3B0082D083D0E06B7008E965827003EA65832A
:100E4B0070037F002290046CE0FBA3E0FAA3E0F9AF
:100E5B00C003C002C00190046FE0FBA3E0FAA3E063
:100E6B00F97582207583001207BDA801AC02AD0392
:100E7B00D001D002D0037E007F201205F77B007AD1
:100E8B000779D0C003C002C00190046FE0FBA3E060
:100E9B00FAA3E0F97582207583001207BD758220D5
:100EAB007583001207ED900469E0FBA3E0FAA3E061
:0D0EBB00F9E475F0011206D87F01227F00D6
:010EC8002207
:0B0EC900900436EBF0A3EAF0A3E9F080
:100ED4007B007A0779D0C003C002C001900436E0D9
:100EE400FBA3E0FAA3E0F9D082D083D0E06B7008D2
:100EF400E965827003EA6583700302111990043670
:100F0400E0FBA3E0FAA3E0F9758202758300120600
:100F140036FFEF7003021119900436E0FBA3E0FAE8
:100F2400A3E0F97582037583001207BD90043CEBBE
:100F3400F0A3EAF0A3E9F0900436E0FBA3E0FAA3FF
:100F4400E0F97582037583001207BDC003C002C0B7
:100F5400017B007A0779D0D082D083D0E06B70080F
:100F6400E965827003EA6583700302100A90043C09
:100F7400E0FBA3E0FAA3E0F9C003C002C0019004BF
:100F840039E0FBA3E0FAA3E0F990048DEBF0A3EAC7
:100F9400F0A3E9F0D001D002D00312206BEF606D12
:100FA40090043CE0FBA3E0FAA3E0F975822075838A
:100FB400001207BDC003C002C001900436E0FBA3C9
:100FC400E0FAA3E0F97582037583001207ED90043B
:100FD4003CE0FBA3E0FAA3E0F91214F2900436E03B
:100FE400FBA3E0FAA3E0F974FF75F0FF1206D890B2
:100FF4000436E0FBA3E0FAA3E0F9758203758300ED
:101004001207BD2280077B007A0779D02290043C26
:10101400E0FBA3E0FAA3E0F97582207583001207D0
:10102400BDC003C002C0017B007A0779D0D082D052
:1010340083D0E06B7008E965827003EA658370030E
:1010440002111990043CE0FBA3E0FAA3E0F9900438
:101054003FEBF0A3EAF0A3E9F090043CE0FBA3E04B
:10106400FAA3E0F97582207583001207BD90043C51
:10107400EBF0A3EAF0A3E9F090043CE0FBA3E0FA70
:10108400A3E0F9C003C002C001900439E0FBA3E06F
:10109400FAA3E0F990048DEBF0A3EAF0A3E9F0D011
:1010A40001D002D00312206BEF70030210119004E0
:1010B4003CE0FBA3E0FAA3E0F975822075830012FB
:1010C40007BDC003C002C00190043FE0FBA3E0FAE7
:1010D400A3E0F97582207583001207ED90043CE0CB
:1010E400FBA3E0FAA3E0F91214F2900436E0FBA3A8
:1010F400E0FAA3E0F974FF75F0FF1206D890043FFC
:10110400E0FBA3E0FAA3E0F97582207583001207DF
:0B111400BD220210117B007A0779D089
:01111F0022AD
:10206B0090048AEBF0A3EAF0A3E9F090048DE0FB77
:10207B00A3E0FAA3E0F975821B758300120636FF05
:10208B0090048AE0FBA3E0FAA3E0F975821B758349
:0F209B0000120636FEEEB507037F01227F0022FA
:1020AA009004A0EBF0A3EAF0A3E9F09004A0E0FB0F
:1020BA00A3E0FAA3E0F91206ADFFAEF0EF4E700707
:1020CA007B007A0779D0229004A0E0FBA3E0FAA370
:0C20DA00E0F97582037583001207BD2237
:0B17EF00900442EBF0A3EAF0A3E9F045
:1017FA00900442E0FBA3E0FAA3E0F91206ADFFAEC3
:10180A00F0C3EF9402EE940050030219429004428E
:10181A00E0FBA3E0FAA3E0F91220AA900445EBF05A
:10182A00A3EAF0A3E9F0900442E0FBA3E0FAA3E004
:10183A00F97582037583001207BD758220758300CE
:10184A001207BDC003C002C001900442E0FBA3E03E
:10185A00FAA3E0F97582037583001207ED9004423A
:10186A00E0FBA3E0FAA3E0F975820375830012078F
:10187A00BD900448EBF0A3EAF0A3E9F0900448E035
:10188A00FBA3E0FAA3E0F990044BEBF0A3EAF0A380
:10189A00E9F07B007A0779D0C003C002C001900446
:1018AA0048E0FBA3E0FAA3E0F9D082D083D0E06B52
:1018BA007008E965827003EA65836037900448E03E
:1018CA00FBA3E0FAA3E0F990044BEBF0A3EAF0A340
:1018DA00E9F0900448E0FBA3E0FAA3E0F97582205E
:1018EA007583001207BD900448EBF0A3EAF0A3E960
:1018FA00F0809F7B007A0779D0C003C002C00190B4
:10190A000445E0FBA3E0FAA3E0F9758220758300A1
:10191A001207ED900445E0FBA3E0FAA3E0F9C00347
:10192A00C002C00190044BE0FBA3E0FAA3E0F97502
:08193A0082207583001207ED05
:011942002282
:0F21C2001221847F007E287D007C001220E622FF
:10218400759850438E40538EFE53890F758BE075BE
:072194008DFEC2ABD28E22CA
:102169009004AAEFF0C2AC9004AAE0FF8F993099CD
:0B217900FDC299D2AC9004AAE0FF2246
:1020E600900496120742438E805389F0900496E03E
:1020F600FCA3E0FDA3E0FEA3E0FF8F8A900496E038
:10210600FCA3E0FDA3E0FEA3E0FF780812072F8FF3
:0A2116008CC28DD28CD2A9D2AF2268
:1004F9004304910007D01922000000000000000009
:1005090000000000000000000000000000000000E2
:0D051900004104950041049400410490004D
:1021B2001221C212201D7B017A047991121D8C22F8
:101FAF001221B27BFF7A2179E57D03121E6990041D
:101FBF0091E0FBA3E0FAA3E0F975820375830012A9
:101FCF0007BD74031206637B007A007922AF01907C
:101FDF000491E0FBA3E0FAA3E0F975820375830097
:101FEF001207BD75821C758300EF12067590049160
:101FFF00E0FBA3E0FAA3E0F97582037583001207F3
:0E200F00BD75821D7583001207BD12084622A2
:101C97009004A3E4F09004A4E4F09004A5E4F09089
:101CA70004A3E4F09004A3E0FF7E00C3EF9401EEE9
:101CB700648094804003021D899004A3E0FF7E00A6
:101CC700EF2401FFEE3400FEEF64014E701790041D
:101CD700A3E0FFEF75F008A4FFC374059FFF90040E
:101CE700A5EFF080069004A57408F09004A4E4F032
:101CF7009004A5E0FF9004A4E0FEEEC39F507A9005
:101D070004A3E0FF74942FF582E43404F583E0FF25
:101D17009004A4E0FEA806EF088002C313D8FCFFD6
:101D27007E00EF20E04A9004A4E0FFA807740108B2
:101D37008002C333D8FCFF9004A3E0FE74942EF511
:101D470082E43404F583E0FEEF4EFF9004A3E0FE47
:101D570074942EF582E43404F583EFF09004A3E045
:101D6700FFEF75F008A4FF9004A4E0FEEF2EFF221A
:101D77009004A4E004F0021CF79004A3E004F0022E
:041D87001CAB7FFF13
:011D8B002235
:101E6900900412EBF0A3EAF0A3E9F0900415EDF069
:101E7900121C97900431EFF0900431E0FF7E00EFDF
:101E8900B4FF07EEB4FF037FFF22900412E0FBA327
:101E9900E0FAA3E0F9900433EBF0A3EAF0A3E9F048
:101EA900900415E0FF900417EFF0900412E0FBA3F3
:101EB900E0FAA3E0F9AF01EF54FFFF900418EFF047
:101EC900900412E0FBA3E0FAA3E0F9AE02AF01EE41
:101ED900FF7E00EF54FFFF900419EFF07B007A00BA
:101EE9007930AF01900432EFF09004167401F0904C
:101EF9000495E004F0900491E0FBA3E0FAA3E0F973
:101F0900C003C002C0017B017A04791690046CEB0E
:101F1900F0A3EAF0A3E9F0D001D002D003120C300B
:051F2900900431E0FF0F
:011F2E002290
:0621DF00900495E0FF22D0
:0621E50012219B80FE2286
:10112000900490E004F0900490E0FF7E00C3EF9400
:1011300004EE648094805003021353900491E0FB0A
:10114000A3E0FAA3E0F91206ADFFAEF0D3EF9401ED
:08115000EE9400500302134E5F
:10115800900482E4F0AF817E00900485EEF0A3EF66
:10116800F0900485E0FEA3E0FF7B007A007922AED0
:1011780001C3EF9EFF74222FF8E6FF900483EFF07F
:10118800900485E0FEA3E0FF7E007B007A007922D0
:10119800AD017C00C3EF9DFFEE9CFE74212FF8E6A5
:1011A800FF900484EFF0900491E0FBA3E0FAA3E041
:1011B800F91220AA900487EBF0A3EAF0A3E9F0E57E
:1011C8008124FEFF900487E0FBA3E0FAA3E0F97511
:1011D800821C758300EF120675900482E4F0900477
:1011E80082E0FF7E00C3EF9419EE6480948050394A
:1011F800900482E0FF74222FF8E6FF900487E0FB5A
:10120800A3E0FAA3E0F9E92402F9EA3400FA900429
:1012180082E0FEEEFD7C00E92DF9EA3CFAEF1206C9
:1012280063900482E004F080B5900487E0FBA3E0BB
:10123800FAA3E0F97401120663900491E0FBA3E0BD
:10124800FAA3E0F91217EF900491E0FBA3E0FAA3E8
:10125800E0F91220AA900487EBF0A3EAF0A3E9F0E2
:10126800900482E4F0900482E0FF7E00C3EF9419BA
:10127800EE648094805037900487E0FBA3E0FAA3E3
:10128800E0F9E92402F9EA3400FA900482E0FF7EEA
:1012980000E92FF9EA3EFA12061DFF900482E0FEEB
:1012A80074222EF8A607900482E004F080B7900418
:1012B80087E0FBA3E0FAA3E0F975821C75830012AE
:1012C8000636FFEF2402F581900484E0FF9004873E
:1012D800E0FBA3E0FAA3E0F975821C75830012060F
:1012E80036FEEEFD7C007B007A007922AE01EEFB33
:1012F8007A00C3ED9BFDEC9AFC74232DF8A60790A9
:101308000483E0FF900487E0FBA3E0FAA3E0F9750B
:10131800821C758300120636FEEEFD7C007B007A87
:10132800007922AE01EEFB7A00C3ED9BFDEC9AFC3E
:1013380074242DF8A607900487E0FBA3E0FAA3E045
:06134800F97403120663B4
:05134E00900490E4F0A2
:011353002277
:030000000200C932
:03000B000200D020
:1000C900758122021F6A22C0E0C0F0C0D0C083C07F
:1000D90082C000C001C002C003C004C005C006C080
:1000E90007121120D007D006D005D004D003D002C2
:0F00F900D001D000D082D083D0D0D0F0D0E03270
:0E21D100613D25640D0A00623D25640D0A0083
:102145009004A6E4F0A3E4F07BFF7A2179D1900412
:10215500A6E0FEA3E0FF9003EDEEF0A3EFF0120979
:032165003680E5DC
:012168002254
:102120009004A8E4F0A37404F07BFF7A2179D8909E
:1021300004A8E0FEA3E0FF9003EDEEF0A3EFF012A1
:04214000093680E5F7
:012144002278
:10219B007BFF7A2179457D00121E697BFF7A2179BD
:0721AB00207D00121E6922D5
:101F2F00021FAFE493A3F8E493A34003F68001F2FA
:101F3F0008DFF48029E493A3F85407240CC8C333B3
:101F4F00C4540F4420C8834004F456800146F6DF82
:101F5F00E4800B0102040810204080900108E47E09
:101F6F00019360BCA3FF543F30E509541FFEE49377
:101F7F00A360010ECF54C025E060A840B8E493A33E
:101F8F00FAE493A3F8E493A3C8C582C8CAC583CA69
:101F9F00F0A3C8C582C8CAC583CADFE9DEE780BE21
:0105260000D4
:10052700E709F608DFFA8046E709F208DFFA803EB6
:1005370088828C83E709F0A3DFFA8032E309F608A3
:10054700DFFA8078E309F208DFFA807088828C830B
:10055700E309F0A3DFFA806489828A83E0A3F608BF
:10056700DFFA805889828A83E0A3F208DFFA804C99
:1005770080D280FA80C680D4806980F28033801070
:1005870080A680EA809A80A880DA80E280CA8033D9
:1005970089828A83ECFAE493A3C8C582C8CCC58351
:1005A700CCF0A3C8C582C8CCC583CCDFE9DEE78021
:1005B7000D89828A83E493A3F608DFF9ECFAA9F0A0
:1005C700EDFB2289828A83ECFAE0A3C8C582C8CCF6
:1005D700C583CCF0A3C8C582C8CCC583CCDFEADE0F
:1005E700E880DB89828A83E493A3F208DFF980CC71
:1005F70088F0EF60010E4E60C388F0ED2402B4046A
:100607000050B9F582EB2402B4040050AF23234510
:06061700822390057773B9
:10061D00BB010689828A83E0225002E722BBFE02DB
:09062D00E32289828A83E493220E
:10063600BB010CE58229F582E5833AF583E0225079
:1006460006E92582F8E622BBFE06E92582F8E222C3
:0D065600E58229F582E5833AF583E49322DD
:10066300BB010689828A83F0225002F722BBFE0176
:02067300F32270
:10067500F8BB010DE58229F582E5833AF583E8F0BB
:10068500225006E92582C8F622BBFE05E92582C867
:02069500F2224F
:10069700C5F0F8A3E028F0C5F0F8E58215827002EE
:0606A7001583E038F0228B
:1006AD00BB010A89828A83E0F5F0A3E02250068718
:1006BD00F009E71922BBFE07E3F5F009E3192289DA
:0B06CD00828A83E493F5F0740193220D
:1006D800BB010789828A83020697500B09C5F02758
:1006E800F7C5F01937F722BBFE0D09F8E325F0F33B
:1006F800C5F019E338F322F889828A8374019325B7
:08070800F0C5F0F8E49338227B
:10071000BB010A89828A83F0E5F0A3F0225006F734
:0F07200009A7F01922BBFE06F3E5F009F3192231
:10072F00E8600FECC313FCED13FDEE13FEEF13FFA8
:03073F00D8F122CC
:0C074200ECF0A3EDF0A3EEF0A3EFF0222A
:10074E00BB010789828A8302085E5005E9F8020818
:10075E004CBBFE05E9F802088789828A8302089954
:10076E00BB011A89828A83D0F0D0E0F8D0E0F9D0AC
:10077E00E0FAD0E0FBE8C0E0C0F002087E5016E9D7
:10078E00F8D083D082D0E0F9D0E0FAD0E0FBC0827E
:10079E00C083020855BBFE16E9F8D083D082D0E0A4
:0F07AE00F9D0E0FAD0E0FBC082C08302089022AD
:1007BD00BB010DE58229F582E5833AF58302085EDA
:1007CD005007E92582F802084CBBFE07E92582F89F
:1007DD00020887E58229F582E5833AF583020899B7
:1007ED00BB0120E58229F582E5833AF583D0F0D06F
:1007FD00E0F8D0E0F9D0E0FAD0E0FBE8C0E0C0F0DE
:10080D0002087E5018E92582F8D083D082D0E0F915
:10081D00D0E0FAD0E0FBC082C083020855BBFE18C1
:10082D00E92582F8D083D082D0E0F9D0E0FAD0E08B
:09083D00FBC082C0830208902276
:060846008A838982E4733D
:1008CB00E50824EDF582E43403F583E00508229076
:1008DB0003EA3007039003EDE475F0011208670299
:1008EB00061D2000E97F2ED2008018EF540F2490B4
:1008FB00D43440D4FF30040BEF24BFB41A005003A0
:10090B002461FFE50960021509050CE50C70020571
:10091B000B30070E9003EAE475F001120867EF0243
:10092B0006630221697403D2078003E4C207F5084A
:10093B009003EA12087EE4F509F50BF50CE5096066
:10094B00077F2012090E80F5750AFFC201C200C293
:10095B0002C203C205C206C2081208DAFF700D30CC
:10096B0007057F0012091FAF0CAE0B22B4255FC227
:10097B00D5C2041208DAFF24D0B40A00501A75F05D
:10098B000A780930D50508B6FF0106C6A426F6205D
:10099B00D5047002D20380D924CFB41A00EF5004CF
:1009AB00C2E5D204020B20D20180C6D20080C0D295
:1009BB000280BCD2D580BAD20580B47F2012090E3A
:1009CB002002077401B5090040F11208CBFF120990
:1009DB000E020948D208D20680951208CBFB1208EA
:1009EB00CBFA1208CBF94A4B700679F17A0B7BFFE5
:1009FB0020022EE509602A7E008E82758300120686
:100A0B003660060EEE650A70F0C2D5EBC0E0EAC0A8
:100A1B00E0E9C0E0EE120B67D0E0F9D0E0FAD0E0ED
:100A2B00FB12061DFF60AAEBC0E0EAC0E0E9C0E0E4
:100A3B0012090ED0E02401F9D0E03400FAD0E0FB2B
:100A4B00E50A0460DCD50AD980877BFF7A0B7963D2
:100A5B00D202809C791080027908C206C2088008F5
:100A6B00D2D5790A8004790AC2D5E50A047002F559
:100A7B000AE4FAFDFEFF1208CBFC7B0820011312DF
:100A8B0008CBFD7B1030000A1208CBFE1208CBFFFF
:100A9B007B20EC3382D592D55013C3E43000069FF4
:100AAB00FFE49EFEE42001039DFDE49CFCE4CBF8F7
:100ABB00C201EC700CCFCECDCCE824F8F870F380EB
:100ACB0017C3EF33FFEE33FEED33FDEC33FCEB33AB
:100ADB00FB994002FB0FD8E9EB300105F8D0E0C4DD
:100AEB0048B201C0E00AEC4D4E4F78207B0070C23B
:100AFB00EAB50A0040BCC0E0120B69D0F0D0E02090
:100B0B000104C4C0E0C4B201C0F01208F7D0F0D5A4
:100B1B00F0EB0209481208A509E5530A5F5809B61C
:100B2B004C09B2420A634F0A6B440A6B4909CB4327
:080B3B000A71550A55460A55DE
:100B4300450A55470C115009BA2D09BE2E09E12B50
:100B530009C22309DF200BFA2A097A48000009D9C0
:100B63003F3F3F00790AA2D5200314300509B9108D
:100B7300020404B9080104A2D5200602500104208E
:100B830002689202B509005034C0E07F2030031997
:100B93007F30A20272067205500F120BC0C202C24E
:100BA30006C205C2087F30800F300503E9C0E0129A
:100BB300090E300503D0E0F9D0E0B509CC300517B4
:100BC3007F30B9100C12090E7F583004077F7880EC
:100BD30003B9080312090E3002057F2D02090E7FA7
:100BE300202008F87F2B2006F322920280CF286E64
:100BF300756C6C2900D2011208CB3001F8C2017860
:100C03000930D50108F602097A2D504349581208D4
:100C1300CB2403B405004001E4900C0C931208FFAD
:0D0C2300743A1208FFD203750904020A5F3B
:09084C00E6FB08E6FA08E6F922D1
:09085500EBF608EAF608E9F622C8
:09085E00E0FBA3E0FAA3E0F9229B
:10086700F8E0FBA3A3E0F925F0F0E582158270021A
:070877001583E0FA38F022BE
:09087E00EBF0A3EAF0A3E9F0227B
:09088700E2FB08E2FA08E2F922A2
:09089000EBF208EAF208E9F22299
:0C089900E493FB740193FA740293F922BB
:1008A500D083D082F8E4937012740193700DA3A3E2
:1008B50093F8740193F5828883E4737402936860F6
:0608C500EFA3A3A380DFF6
:00000001FF
